{
  "_format": "hh-sol-artifact-1",
  "contractName": "Decentragram",
  "sourceName": "contracts/Decentragram.sol",
  "abi": [
    {
      "anonymous": false,
      "inputs": [
        {
          "indexed": false,
          "internalType": "uint256",
          "name": "id",
          "type": "uint256"
        },
        {
          "indexed": false,
          "internalType": "string",
          "name": "imgHash",
          "type": "string"
        },
        {
          "indexed": false,
          "internalType": "string",
          "name": "title",
          "type": "string"
        },
        {
          "indexed": false,
          "internalType": "string",
          "name": "description",
          "type": "string"
        },
        {
          "indexed": false,
          "internalType": "uint256",
          "name": "tipAmount",
          "type": "uint256"
        },
        {
          "indexed": false,
          "internalType": "address payable",
          "name": "author",
          "type": "address"
        }
      ],
      "name": "ImageCreated",
      "type": "event"
    },
    {
      "anonymous": false,
      "inputs": [
        {
          "indexed": false,
          "internalType": "uint256",
          "name": "id",
          "type": "uint256"
        },
        {
          "indexed": false,
          "internalType": "string",
          "name": "imgHash",
          "type": "string"
        },
        {
          "indexed": false,
          "internalType": "string",
          "name": "title",
          "type": "string"
        },
        {
          "indexed": false,
          "internalType": "string",
          "name": "description",
          "type": "string"
        },
        {
          "indexed": false,
          "internalType": "uint256",
          "name": "tipAmount",
          "type": "uint256"
        },
        {
          "indexed": false,
          "internalType": "address payable",
          "name": "author",
          "type": "address"
        }
      ],
      "name": "imageTipped",
      "type": "event"
    },
    {
      "inputs": [],
      "name": "getUploadedImages",
      "outputs": [
        {
          "components": [
            {
              "internalType": "uint256",
              "name": "id",
              "type": "uint256"
            },
            {
              "internalType": "string",
              "name": "imgHash",
              "type": "string"
            },
            {
              "internalType": "string",
              "name": "title",
              "type": "string"
            },
            {
              "internalType": "string",
              "name": "description",
              "type": "string"
            },
            {
              "internalType": "uint256",
              "name": "tipAmount",
              "type": "uint256"
            },
            {
              "internalType": "address payable",
              "name": "author",
              "type": "address"
            }
          ],
          "internalType": "struct Decentragram.Image[]",
          "name": "",
          "type": "tuple[]"
        }
      ],
      "stateMutability": "view",
      "type": "function"
    },
    {
      "inputs": [
        {
          "internalType": "uint256",
          "name": "",
          "type": "uint256"
        }
      ],
      "name": "images",
      "outputs": [
        {
          "internalType": "uint256",
          "name": "id",
          "type": "uint256"
        },
        {
          "internalType": "string",
          "name": "imgHash",
          "type": "string"
        },
        {
          "internalType": "string",
          "name": "title",
          "type": "string"
        },
        {
          "internalType": "string",
          "name": "description",
          "type": "string"
        },
        {
          "internalType": "uint256",
          "name": "tipAmount",
          "type": "uint256"
        },
        {
          "internalType": "address payable",
          "name": "author",
          "type": "address"
        }
      ],
      "stateMutability": "view",
      "type": "function"
    },
    {
      "inputs": [],
      "name": "name",
      "outputs": [
        {
          "internalType": "string",
          "name": "",
          "type": "string"
        }
      ],
      "stateMutability": "view",
      "type": "function"
    },
    {
      "inputs": [
        {
          "internalType": "uint256",
          "name": "_id",
          "type": "uint256"
        }
      ],
      "name": "tipImageOwner",
      "outputs": [],
      "stateMutability": "payable",
      "type": "function"
    },
    {
      "inputs": [
        {
          "internalType": "string",
          "name": "_imgHash",
          "type": "string"
        },
        {
          "internalType": "string",
          "name": "_title",
          "type": "string"
        },
        {
          "internalType": "string",
          "name": "_description",
          "type": "string"
        }
      ],
      "name": "uploadImage",
      "outputs": [],
      "stateMutability": "nonpayable",
      "type": "function"
    }
  ],
  "bytecode": "0x60806040526040518060400160405280600c81526020017f446563656e7472616772616d000000000000000000000000000000000000000081525060009080519060200190620000519291906200006b565b5060006002553480156200006457600080fd5b5062000180565b82805462000079906200011b565b90600052602060002090601f0160209004810192826200009d5760008555620000e9565b82601f10620000b857805160ff1916838001178555620000e9565b82800160010185558215620000e9579182015b82811115620000e8578251825591602001919060010190620000cb565b5b509050620000f89190620000fc565b5090565b5b8082111562000117576000816000905550600101620000fd565b5090565b600060028204905060018216806200013457607f821691505b602082108114156200014b576200014a62000151565b5b50919050565b7f4e487b7100000000000000000000000000000000000000000000000000000000600052602260045260246000fd5b61146680620001906000396000f3fe60806040526004361061004a5760003560e01c806306fdde031461004f578063848564821461007a5780638567ade8146100bc5780639afff601146100d8578063cec23a4714610103575b600080fd5b34801561005b57600080fd5b5061006461012c565b6040516100719190610fb0565b60405180910390f35b34801561008657600080fd5b506100a1600480360381019061009c9190610d42565b6101ba565b6040516100b396959493929190611088565b60405180910390f35b6100d660048036038101906100d19190610d42565b6103be565b005b3480156100e457600080fd5b506100ed6106fc565b6040516100fa9190610f8e565b60405180910390f35b34801561010f57600080fd5b5061012a60048036038101906101259190610cab565b61097b565b005b60008054610139906112a0565b80601f0160208091040260200160405190810160405280929190818152602001828054610165906112a0565b80156101b25780601f10610187576101008083540402835291602001916101b2565b820191906000526020600020905b81548152906001019060200180831161019557829003601f168201915b505050505081565b600181815481106101ca57600080fd5b90600052602060002090600602016000915090508060000154908060010180546101f3906112a0565b80601f016020809104026020016040519081016040528092919081815260200182805461021f906112a0565b801561026c5780601f106102415761010080835404028352916020019161026c565b820191906000526020600020905b81548152906001019060200180831161024f57829003601f168201915b505050505090806002018054610281906112a0565b80601f01602080910402602001604051908101604052809291908181526020018280546102ad906112a0565b80156102fa5780601f106102cf576101008083540402835291602001916102fa565b820191906000526020600020905b8154815290600101906020018083116102dd57829003601f168201915b50505050509080600301805461030f906112a0565b80601f016020809104026020016040519081016040528092919081815260200182805461033b906112a0565b80156103885780601f1061035d57610100808354040283529160200191610388565b820191906000526020600020905b81548152906001019060200180831161036b57829003601f168201915b5050505050908060040154908060050160009054906101000a900473ffffffffffffffffffffffffffffffffffffffff16905086565b6000600182815481106103fa577f4e487b7100000000000000000000000000000000000000000000000000000000600052603260045260246000fd5b90600052602060002090600602016040518060c00160405290816000820154815260200160018201805461042d906112a0565b80601f0160208091040260200160405190810160405280929190818152602001828054610459906112a0565b80156104a65780601f1061047b576101008083540402835291602001916104a6565b820191906000526020600020905b81548152906001019060200180831161048957829003601f168201915b505050505081526020016002820180546104bf906112a0565b80601f01602080910402602001604051908101604052809291908181526020018280546104eb906112a0565b80156105385780601f1061050d57610100808354040283529160200191610538565b820191906000526020600020905b81548152906001019060200180831161051b57829003601f168201915b50505050508152602001600382018054610551906112a0565b80601f016020809104026020016040519081016040528092919081815260200182805461057d906112a0565b80156105ca5780601f1061059f576101008083540402835291602001916105ca565b820191906000526020600020905b8154815290600101906020018083116105ad57829003601f168201915b50505050508152602001600482015481526020016005820160009054906101000a900473ffffffffffffffffffffffffffffffffffffffff1673ffffffffffffffffffffffffffffffffffffffff1673ffffffffffffffffffffffffffffffffffffffff1681525050905060008160a0015190508073ffffffffffffffffffffffffffffffffffffffff166108fc349081150290604051600060405180830381858888f19350505050158015610684573d6000803e3d6000fd5b50348260800181815161069791906111ba565b915081815250507faae2d380458666b6c9ab8c3093633f008dd161d4b7e2013e0d39625877ea8486826000015183602001518460400151856060015186608001518760a001516040516106ef96959493929190611088565b60405180910390a1505050565b60606001805480602002602001604051908101604052809291908181526020016000905b8282101561097257838290600052602060002090600602016040518060c00160405290816000820154815260200160018201805461075d906112a0565b80601f0160208091040260200160405190810160405280929190818152602001828054610789906112a0565b80156107d65780601f106107ab576101008083540402835291602001916107d6565b820191906000526020600020905b8154815290600101906020018083116107b957829003601f168201915b505050505081526020016002820180546107ef906112a0565b80601f016020809104026020016040519081016040528092919081815260200182805461081b906112a0565b80156108685780601f1061083d57610100808354040283529160200191610868565b820191906000526020600020905b81548152906001019060200180831161084b57829003601f168201915b50505050508152602001600382018054610881906112a0565b80601f01602080910402602001604051908101604052809291908181526020018280546108ad906112a0565b80156108fa5780601f106108cf576101008083540402835291602001916108fa565b820191906000526020600020905b8154815290600101906020018083116108dd57829003601f168201915b50505050508152602001600482015481526020016005820160009054906101000a900473ffffffffffffffffffffffffffffffffffffffff1673ffffffffffffffffffffffffffffffffffffffff1673ffffffffffffffffffffffffffffffffffffffff168152505081526020019060010190610720565b50505050905090565b60008351116109bf576040517f08c379a00000000000000000000000000000000000000000000000000000000081526004016109b690610fd2565b60405180910390fd5b6000815111610a03576040517f08c379a00000000000000000000000000000000000000000000000000000000081526004016109fa90610ff2565b60405180910390fd5b60016040518060c001604052806002548152602001858152602001848152602001838152602001600081526020013373ffffffffffffffffffffffffffffffffffffffff168152509080600181540180825580915050600190039060005260206000209060060201600090919091909150600082015181600001556020820151816001019080519060200190610a9a929190610b8b565b506040820151816002019080519060200190610ab7929190610b8b565b506060820151816003019080519060200190610ad4929190610b8b565b506080820151816004015560a08201518160050160006101000a81548173ffffffffffffffffffffffffffffffffffffffff021916908373ffffffffffffffffffffffffffffffffffffffff1602179055505050600160026000828254610b3b91906111ba565b925050819055507f0919451463723a9fa34d74bd0c38b33a6180cc7dc1c03e6833a3dccbe110d730600254848484600033604051610b7e96959493929190611012565b60405180910390a1505050565b828054610b97906112a0565b90600052602060002090601f016020900481019282610bb95760008555610c00565b82601f10610bd257805160ff1916838001178555610c00565b82800160010185558215610c00579182015b82811115610bff578251825591602001919060010190610be4565b5b509050610c0d9190610c11565b5090565b5b80821115610c2a576000816000905550600101610c12565b5090565b6000610c41610c3c84611123565b6110fe565b905082815260208101848484011115610c5957600080fd5b610c6484828561125e565b509392505050565b600082601f830112610c7d57600080fd5b8135610c8d848260208601610c2e565b91505092915050565b600081359050610ca581611419565b92915050565b600080600060608486031215610cc057600080fd5b600084013567ffffffffffffffff811115610cda57600080fd5b610ce686828701610c6c565b935050602084013567ffffffffffffffff811115610d0357600080fd5b610d0f86828701610c6c565b925050604084013567ffffffffffffffff811115610d2c57600080fd5b610d3886828701610c6c565b9150509250925092565b600060208284031215610d5457600080fd5b6000610d6284828501610c96565b91505092915050565b6000610d778383610ed9565b905092915050565b610d8881611210565b82525050565b610d9781611210565b82525050565b6000610da882611164565b610db28185611187565b935083602082028501610dc485611154565b8060005b85811015610e005784840389528151610de18582610d6b565b9450610dec8361117a565b925060208a01995050600181019050610dc8565b50829750879550505050505092915050565b610e1b8161124c565b82525050565b6000610e2c8261116f565b610e368185611198565b9350610e4681856020860161126d565b610e4f81611390565b840191505092915050565b6000610e658261116f565b610e6f81856111a9565b9350610e7f81856020860161126d565b610e8881611390565b840191505092915050565b6000610ea0601a836111a9565b9150610eab826113a1565b602082019050919050565b6000610ec36021836111a9565b9150610ece826113ca565b604082019050919050565b600060c083016000830151610ef16000860182610f70565b5060208301518482036020860152610f098282610e21565b91505060408301518482036040860152610f238282610e21565b91505060608301518482036060860152610f3d8282610e21565b9150506080830151610f526080860182610f70565b5060a0830151610f6560a0860182610d7f565b508091505092915050565b610f7981611242565b82525050565b610f8881611242565b82525050565b60006020820190508181036000830152610fa88184610d9d565b905092915050565b60006020820190508181036000830152610fca8184610e5a565b905092915050565b60006020820190508181036000830152610feb81610e93565b9050919050565b6000602082019050818103600083015261100b81610eb6565b9050919050565b600060c0820190506110276000830189610f7f565b81810360208301526110398188610e5a565b9050818103604083015261104d8187610e5a565b905081810360608301526110618186610e5a565b90506110706080830185610e12565b61107d60a0830184610d8e565b979650505050505050565b600060c08201905061109d6000830189610f7f565b81810360208301526110af8188610e5a565b905081810360408301526110c38187610e5a565b905081810360608301526110d78186610e5a565b90506110e66080830185610f7f565b6110f360a0830184610d8e565b979650505050505050565b6000611108611119565b905061111482826112d2565b919050565b6000604051905090565b600067ffffffffffffffff82111561113e5761113d611361565b5b61114782611390565b9050602081019050919050565b6000819050602082019050919050565b600081519050919050565b600081519050919050565b6000602082019050919050565b600082825260208201905092915050565b600082825260208201905092915050565b600082825260208201905092915050565b60006111c582611242565b91506111d083611242565b9250827fffffffffffffffffffffffffffffffffffffffffffffffffffffffffffffffff0382111561120557611204611303565b5b828201905092915050565b600061121b82611222565b9050919050565b600073ffffffffffffffffffffffffffffffffffffffff82169050919050565b6000819050919050565b600061125782611242565b9050919050565b82818337600083830152505050565b60005b8381101561128b578082015181840152602081019050611270565b8381111561129a576000848401525b50505050565b600060028204905060018216806112b857607f821691505b602082108114156112cc576112cb611332565b5b50919050565b6112db82611390565b810181811067ffffffffffffffff821117156112fa576112f9611361565b5b80604052505050565b7f4e487b7100000000000000000000000000000000000000000000000000000000600052601160045260246000fd5b7f4e487b7100000000000000000000000000000000000000000000000000000000600052602260045260246000fd5b7f4e487b7100000000000000000000000000000000000000000000000000000000600052604160045260246000fd5b6000601f19601f8301169050919050565b7f496d61676520486173682043616e277420426520456d70747921000000000000600082015250565b7f496d616765204465736372697074696f6e2043616e277420426520456d70747960008201527f2100000000000000000000000000000000000000000000000000000000000000602082015250565b61142281611242565b811461142d57600080fd5b5056fea2646970667358221220c6bd0049432023f3d1d92a2e65c16ba814e4fa8efb56d8e66004474cca066c0b64736f6c63430008040033",
  "linkReferences": {},
  "deployedLinkReferences": {}
}